:020000040000FA
:10000000800C00209D010000B70100006137000056
:1000100000000000000000000000000000000000E0
:10002000000000000000000000000000BB01000014
:100030000000000000000000BD010000F5500000BD
:10004000254D00002D4D0000354D0000414D0000B4
:1000500025210000575600001957000025570000C1
:10006000654700006D470000C1010000C1010000AC
:1000700071370000793700003F56000047560000F6
:100080004F560000F34600005F5600006756000020
:100090006F560000154D000045570000B54D00009B
:1000A000231100001D4D0000C1010000C10100002E
:1000B000C1010000193A0000C52F0000C101000075
:1000C00000F002F800F03EF80CA030C80838241800
:1000D0002D18A246671EAB4654465D46AC4201D180
:1000E00000F030F87E460F3E0FCCB6460126334274
:1000F00000D0FB1AA246AB4633431847605D0000B0
:10010000805D0000103A02D378C878C1FAD852074F
:1001100001D330C830C101D504680C6070470000BD
:100120000023002400250026103A01D378C1FBD813
:10013000520700D330C100D50B6070471FB51FBDFB
:1001400010B510BD00F0BDFF1146FFF7F7FF05F039
:10015000A7FB00F0D5FF03B4FFF7F2FF03BC00F0EC
:10016000D9FF000070B505460C46164602E00FCCDC
:100170000FC5103E102EFAD2082E02D303CC03C5B1
:10018000083E042E07D301CC01C5361F03E02178B9
:100190002970641C6D1C761EF9D270BD0C480D4A86
:1001A000002100A1814200D902440B4802600B48A3
:1001B00080470B480047FEE7FEE7FEE7FEE7FEE765
:1001C000FEE7000007480849084A094B704700004D
:1001D000000000200000000008ED00E0375600009D
:1001E000C100000080060020800C00208008002054
:1001F0008008002001E004C0091F0429FBD28B07FE
:1002000001D50280801CC90700D002707047002908
:100210000BD0C30702D00270401C491E022904D330
:10022000830702D50280801C891EE3E70022EEE7E7
:100230000022DFE7002203098B422CD3030A8B4202
:1002400011D300239C464EE003460B433CD40022CE
:1002500043088B4231D303098B421CD3030A8B42E0
:1002600001D394463FE0C3098B4201D3CB01C01AAE
:10027000524183098B4201D38B01C01A5241430979
:100280008B4201D34B01C01A524103098B4201D367
:100290000B01C01A5241C3088B4201D3CB00C01AD4
:1002A000524183088B4201D38B00C01A524143084C
:1002B0008B4201D34B00C01A5241411A00D2014671
:1002C0005241104670475DE0CA0F00D0494203100A
:1002D00000D34042534000229C4603098B422DD359
:1002E000030A8B4212D3FC22890112BA030A8B4201
:1002F0000CD3890192118B4208D3890192118B4250
:1003000004D389013AD0921100E08909C3098B42D4
:1003100001D3CB01C01A524183098B4201D38B0117
:10032000C01A524143098B4201D34B01C01A5241BA
:1003300003098B4201D30B01C01A5241C3088B42FF
:1003400001D3CB00C01A524183088B4201D38B00EA
:10035000C01A5241D9D243088B4201D34B00C01A74
:100360005241411A00D20146634652415B10104689
:1003700001D34042002B00D54942704763465B10D1
:1003800000D3404201B50020C046C04602BD7047C0
:1003900070477047F0B50C46871A9C410D46861A87
:1003A0009D4103D2C01BA141D21963410D0D1F0D08
:1003B000C94EEC1BAE435CD07F057F0D0026002F9D
:1003C00051D02D05AC46A943DD020123ED0A1B05E2
:1003D0001D4320231B1B24D41746E74038187141C6
:1003E0002F46E740CC199D402818314661410C0D3D
:1003F00027D161449A4013D50023401C5941520033
:100400000ED14008400001224B005205D34207D3D1
:1004100005204007C14201D5B04900E0B04930464F
:10042000F0BD6B00002A00D001229A181F23203C47
:100430001B1B01D5002302E0E540281871410C0D7B
:10044000D7D0012424050919C407CD07400849085D
:10045000E40F28436144002CD5D00024401C6141A6
:100460009A40D0D1CDE76A05520DD9D1C90FC9073D
:10047000D5E79C4D4E00002801D0012400E0002467
:1004800034195F00002A01D0012600E00026BE19C1
:10049000954FAC420CD8AE420AD8B44206D00125E2
:1004A0006D05EC42BCD010461946F0BD9942FCD017
:1004B00000203946F0BDF0B51FB40C460F46811A36
:1004C0009F412546861A9D4106D20125ED076F40C2
:1004D000401ABC4152187B41210D1E0D8D1BAC46AC
:1004E0007D4D8D437ED075056D0D7CD00D05AE46DE
:1004F000AC431B031B0B794D52429D4120236646A2
:100500009B1B14D31746F7403818002600907441FF
:1005100060462F460741E41900989D40281866411F
:1005200016D4714671189A4025D5012320E09318FE
:100530002A466A415200002B00D0521C1E23203E46
:100540009B1B002B61DD3541EE1728186641E8D56D
:10055000001876415B1C9A4000D3401C4B05F318F1
:100560001524E34010D3002B52D071467118D30FDD
:10057000C01802D3491C05B0F0BD0123DB079A4225
:10058000F9D140084000F6E701225205B21801D126
:10059000002853D00123CC0ADB029943891E002A8C
:1005A00008D1020C03D0020C0004103902E002460C
:1005B000002020390023550B05D112020823550BCA
:1005C00001D152010D23550C01D112011B1DD50C77
:1005D00001D192009B1C150D01D152005B1C2025FE
:1005E000EE1A01E02CE022E00546F5401543984064
:1005F000CA1AE10769181305C918002ABBDA0320D3
:1006000040070818C10FC9070FE071466118B2E72B
:10061000F10740080843711071444A000CD00123CF
:100620005B059A42A7D2C90FC9070020A3E7490575
:10063000490D26D1002001E00028F4D100219AE7DD
:10064000284D6600002801D0012100E0002171182A
:100650005F00002A01D0012600E00026BE19224FCB
:10066000A94210D8AE420ED8B14208D001256D057E
:10067000E94206D01946A802414010467BE79C4259
:1006800001D0214677E70020394674E710B50C46C3
:100690005C4005D50124E4076340FFF70CFF10BD63
:1006A000FFF778FE10BD30B40C465C4004D5012441
:1006B000E407634030BC6DE630BCFCE670B5012455
:1006C000E40761400D465D4002D4FFF763FE70BD54
:1006D0006340FFF7F0FE70BDFF0700000000F0FF71
:1006E0000000F07F0000E0FF0000F87FF0B5F94D5A
:1006F0000C091E092C402E402F468BB0A7437DD0FD
:10070000B543FCD0002E7AD0002CFCD00D465D40C5
:10071000ED0F2543AC1BFF25AD0464190894C502F9
:10072000440DC9022143500DDC0204430120C007DF
:1007300001430443D2020191200C110C00958C4618
:10074000010423468B430A9161460904E24D8A4322
:100750000991010A7D4449198039097805464D43BC
:1007600001266D18F605751B6943C90C640B891CBD
:100770004C436418B5012C1B250C2E04B4434C4388
:100780004D43210C691889090591009DE90701D0A5
:100790000121C90704912C4601996708CD072F4311
:1007A0004C08059DE10B4D432D0C294666467543CB
:1007B00002950D4645432E46029D7D1BB441009592
:1007C0000D465D4301942C0C2F040D465543AE4657
:1007D0002D0C3D43029503947546049C2D04641B27
:1007E000049406D2029C039D641C00267541039567
:1007F000029401AC70CC009F7D1B01E03EE162E100
:10080000B44109040095079101940599A408614336
:10081000090C0C464443650BE7040C4666467443DA
:10082000A646640B3C43039502947446049DE4047D
:100830002C1B049406D2029C039D641C0026754167
:100840000395029401AC70CC009F7D1BB4410194D0
:100850000C465C430095650FE7000C465443A646E2
:10086000640F3C43039502947446049DE4002C1BE2
:10087000049406D2029C039D641C002675410395D6
:10088000029401AC70CC009F7D1BB441AE09AF0651
:10089000049DC900AD092F43049DA406AD0604952F
:1008A000079D344369180791059DE10B4D432D0CBD
:1008B00029466646754302950D4645432E46029DE0
:1008C0007D1BB44100950D465D4301942C0C2F0413
:1008D0000D465543AE462D0C3D4302950394754697
:1008E000049C2D04641B049406D2029C039D641C8A
:1008F000002675410395029401AC70CC009F7D1BCE
:10090000B44101948C050694079C890A61180095EE
:100910000791019C0599A4086143090C0D464543C4
:10092000680BEF040D46644665436C0B3C43049F23
:10093000ED047D1BAC4602D20025641C6841009E7C
:10094000019D371B85410846584301950C46460FCB
:10095000C5005443600F28436546E4002C1B02D2B7
:100960000025401C6E41019D3F1AB5412846BD0936
:10097000800628438446A009BF064E020699A406B5
:1009800076180743079D002068410A99079019438C
:100990000020099B00906046FF1913434041E20F7D
:1009A00064003A43A4460446D71A8C41A04203D9B6
:1009B0000120009020463A46C70F941840416246F5
:1009C000D20F2243644664000494009CBE46640037
:1009D000D71AA446044602978C417746002F01D1CE
:1009E000A04204D96046401C8446029A2046C40FA7
:1009F000A64694184041049A0546D20F2243644605
:100A00006400D31A8D417146002901D1A84202D950
:100A100028461A46641C10430122002800D01643C1
:100A200061020020079B891904465C410223002CC7
:100A300002DB491813466441089DCE0A2D145D1946
:100A40004B056705E10A2C050D1908993E43C907B6
:100A50006940002B08D0934006D30022761C5141F8
:100A6000002B01D1760876001C4A002D43DB15428D
:100A700041D0AA433FD030460BB0F0BD06180D461A
:100A80004D41174C7642AC411AD395181C465C4137
:100A9000134A6D42A24113D3012252054C00D442A5
:100AA0000AD15C00D4420BD04B4002D592021143D4
:100AB000E2E749004908DFE75940C90FC90718E0D4
:100AC00000200849D8E7054801420DD10342F7D07C
:100AD000F2E700000000FF07445600000000F07F2E
:100AE0000000E0FF0000F87F114859400143C012A8
:100AF00041400020C0E70123089A9B069A4205DC8A
:100B0000032252078918C90FC907B5E70522520702
:100B10008918074A1143D2125140ADE770B5154606
:100B20001C4602460B4628462146FFF7DFFD70BDF6
:100B3000FFFFFF7F30B50346CA02400D1043164D3C
:100B4000164C0A1502D02043002A06DBAA1A002AF6
:100B500012DDD040FF2A0BDC30BD5205520D01D111
:100B600040004008AA1A07D4D0404042FF2A01DDC5
:100B7000002030BD0028FCDD4A00002B01D0012000
:100B800000E00020101801225205D042F0D8C8170A
:100B9000C043604030BD00001E0400000000008023
:100BA0000346CA02400D10B510430A1504D00124B3
:100BB000E4072043002A05DB0A4CA21A04D4D040E3
:100BC000FF2A00DD002010BD4A00002B01D00120CB
:100BD00000E00020101801225205D042F2D8C817B8
:100BE000C04310BD1E0400001F22030C02D10F22BF
:100BF000000402D0030E03D004E000200146704739
:100C00000002083A030F01D10001121F830F01D126
:100C10008000921E002801DB4000521E1205511870
:100C20004205C012411810467047C10FC90700D0D5
:100C30004042012292071143D6E701218907D3E7F9
:100C4000F0B58B4C0F09254689B0BD437BD01D09FB
:100C50002646AE43FAD00E465E402740F60F3E438E
:100C6000254071D024012142FBD0FF24AD19A404FA
:100C70002D1B039501252D05DB02DB0AC9022B4341
:100C8000C90A29431E010901040F130F050121435D
:100C90001701880B820391432D098C46A90B1E4333
:100CA0008A039543B30B9A0396433F09BA0B940307
:100CB000A74302962E467E430497B6464E19D7198F
:100CC0000C460196544305977E43371B7646BF1B5F
:100CD0003601B646BE0B361900967646BC04371967
:100CE000009C01D3641C00946400002F01D00126F5
:100CF0003443029E049F754366467E430496760005
:100D000034196E0034190094029C019E1C1966432C
:100D1000751BAE46069465464519059C05956C43C2
:100D2000594375460891691A0191049E0146514341
:100D3000A41B0491611A009C0791E10605D061098A
:100D40000122114302E072E06EE06109089D002774
:100D50002C0A2D066918049D7C412A0A2D06691863
:100D6000019D6241AC0DAD026D185441079A910D81
:100D7000920255196141029A644658435443069BB6
:100D8000059A5A43121A131B9A0E9B015B187A415B
:100D9000010B0005C3185141220A200644195A418B
:100DA0009A4200D2491C01204002814203D31523FC
:100DB0000226F64302E014230326F6432020C51A38
:100DC000A9401746AF40DA400A4320460399D8406D
:100DD0000914731819055118039A3843D207514062
:100DE000AC4009D00122944006D30022401C51415E
:100DF000002C01D1400840001E4A934212D3012228
:100E000003989206904207DB0520400709181A480C
:100E10000143C012414004E0032040070818C10FFD
:100E2000C907002009B0F0BD0020F107FAE7051856
:100E30000C464C4111486D42A04115D394181A46F6
:100E40005A410E48644290410ED301204A004005A9
:100E5000824209D35A00824206D35940C90F084A38
:100E6000C90700201143DDE700200649DAE700004A
:100E70000000FF07FE070000FFFFFF7F0000E0FF0C
:100E80000000F07F0000F87FF0B5FF252D04C609B3
:100E9000C209FF2704462E400137CB093E43484094
:100EA0002A402B400746002A6BD0002B69D0AA426B
:100EB00067D0AB4265D0002800DA32460125ED0547
:100EC00029432C4309022002090AD21A4B0C7F2421
:100ED000E31A434C000A7C44E35C7D242404121989
:100EE00014145B00A218884201D3521C00E0400099
:100EF00049420C465C4324115C43DB016415E31852
:100F0000040A5C43C502200D0C4644436419250ABB
:100F10005D432303EC0C0D46654300030019EB18F9
:100F20004C42A34201D35B18401CD4052018002B6F
:100F300007D05B00C91804D3401C002901D1400828
:100F400040003F2189048A4209D3002A08DC1106A7
:100F5000090F04D0032149074018C00FC007F0BD96
:100F600001224100120689187F2252069142F6D2D0
:100F700005214907C84201D59010F0BDFF20C005EA
:100F8000F0BD002F00DA32461648AA4207D2AB4223
:100F900005D21902090E17D0F80FC007F0BDFF25C2
:100FA00063002D06AB42F9D84900A942F6D8AB42FE
:100FB00001D1A942F2D0A94201D1002101E0610092
:100FC0004908D0050843F0BD1102090EFBD0FF20EF
:100FD0000243D005F0BD0A460146104654E7000022
:100FE000424F00000000C07F10B501469E24000261
:100FF000CA15A307002A02D01843002A04DBA21A4C
:10100000002A0CDDD04010BD1206120E01D14000A6
:101010004008A21A03D4D04040420028F3DDFF224A
:1010200048001206904201D9002010BDC817C043E5
:10103000584010BD0102C21504D00123DB0719433B
:10104000002A0ADB9E239A1A02D40846D040704731
:10105000FF2241001206914201D900207047C017BB
:10106000C04370471F22030C02D10F2200041CD082
:10107000030E01D10002083A030F01D10001121F33
:10108000830F01D18000921E002801DB4000521E18
:10109000D2055118021251181922904004D3491C4C
:1010A000002801D14908490008467047C10FC90707
:1010B00000D04042012292071143D3E70121890762
:1010C000D0E7754600F022F8AE4605006946534663
:1010D000C008C000854618B020B5FFF773F860BCA3
:1010E00000274908B6460026C0C5C0C5C0C5C0C552
:1010F000C0C5C0C5C0C5C0C5403D49008D4670478C
:101100000446C046C0462046FFF725F80048704711
:101110001C06002001491820ABBEFEE72600020095
:10112000704710B500F04EF8C046C04610BD10B56F
:1011300000F022FF00F02AF8322004F085FB00F0D6
:10114000D5F810BD014607484068FF22F1329043B0
:101150000A01FF23F1331A401043024A5060002075
:1011600070470000002400400249496B8143014A56
:1011700051637047802400400348406840084000A5
:10118000014948607047000000240040034840685F
:1011900040084000401C014948607047002400405E
:1011A000044840680121C903884340180149486048
:1011B00070470000002400400148006A70470000AA
:1011C00080240040F0B587B0002400270120FFF7FD
:1011D000CBFFFFF7F1FF244909788900234A5050DB
:1011E00021480078401CC1B21F48017000780928CE
:1011F00036DD00211C48017000BF05E0A0001B493E
:101200000858C719601CC4B20A2CF7DB0A213846FB
:10121000FFF710F807463846FFF70FFD0546002296
:10122000134BFFF763FA0022124B01910090FFF776
:1012300007FD0022104B03910290FFF701FD05917D
:101240000490FFF7ADFC0D494860002006492039A5
:10125000C87700F051F800F085FEFFF78DFF01E040
:1012600000F044F807B0F0BD240100200800002081
:1012700000FEAF400000F83F00005940B0000020E1
:1012800010B50446002C01D1042010BD01201649E0
:101290004860022004F0AAFA6078A1880843E18837
:1012A000084361880843218908430F494968084376
:1012B0000D494860084680680915884321788902ED
:1012C000012292021140084307498860084680685D
:1012D00004218843A17A890004221140084302496D
:1012E00088600020D1E7000000240040012001496F
:1012F00008607047C0240040002001490860704722
:10130000C02400400EB50C21684604F05FFA0121AC
:10131000102004F0E3F800F02FFEFFF737FF0A205B
:1013200004F092FA0021684601704170032109031C
:10133000418000218180C180012189030181002138
:101340008172FFF79DFF0EBD10B501211C2004F036
:10135000C5F80421002002F0E7F910BD10B5042003
:10136000FFF7F0FEFFF71CFF01220321182000F019
:1013700051FF10BD1FB504461021684604F026FA3F
:101380000121022004F0AAF8002168464180417042
:10139000012C09D100206946888004F055F802909C
:1013A000E1210902039108E00320C0026946888018
:1013B0004B2149020291891003910121890268465B
:1013C000C1804020694608700C4803F009FA0021EA
:1013D0000A4803F0CFF90121084803F0CBF90021B6
:1013E000064803F0E6F90121044803F0CEF9012292
:1013F0001146082000F00EFF1FBD00000002004053
:101400001CB50721684604F0E1F901211C2004F015
:1014100065F80021684641706A460A21402002F0C2
:101420002BF904220A21402002F074F901216846B8
:1014300041706A460B21402002F01EF903220B2165
:10144000402002F067F91CBD1FB504461021684614
:1014500004F0BCF90121032004F040F800216846A3
:1014600041804170012C09D100206946888003F039
:10147000EBFF0290E1214902039108E00320C00242
:10148000694688804B21490202918910039101210C
:1014900089026846C1804020694608700E4803F002
:1014A0009FF900210C4803F065F901210A4803F077
:1014B00061F90021084803F07CF90121064803F096
:1014C00064F901220221092000F0A4FEA5200349AD
:1014D00008705A2048701FBD00400040AC01002039
:1014E0001CB50721684604F071F901216846417076
:1014F00001711C2003F0F2FF6A460221002002F075
:10150000BBF86A460021084602F0B6F80121684699
:10151000C170002101716A460121002002F0ACF87F
:101520001CBD1CB50721684604F050F901211C20A0
:1015300003F0D4FF0021684641706A46084602F075
:101540009BF802220021084602F0E4F801216846D7
:1015500041706A46002002F08FF80222012100202B
:1015600002F0D8F8002168464170012101706A46F6
:101570000221002002F080F81CBD1CB5072168463E
:1015800004F024F901216846417081700021C17086
:1015900001714171012181716A460F21402002F0E1
:1015A0006BF802220F21402002F03CF802220D21AC
:1015B000402002F037F801220221104600F02AFEF6
:1015C0001CBD08B50021684601704170817003F0B0
:1015D00095FD102003F0BCFF0121022003F0C4FDA3
:1015E00008BD00001FB505A30FCB6C460FC46946AC
:1015F0000E2000F0BBF900F0B7FA1FBD41542B419B
:10160000445054494D3D31300D0A000010B54A4850
:10161000807E01286ED14848807D00286AD1012152
:10162000454820308170012000F0EAF943480078F5
:10163000A52803D1414840785A2805D000203E49CA
:10164000887600F09DF810BD3C488078030004F0D7
:1016500089F80D48080B0E1114171A1D2E3142453A
:10166000480000F01BFB3FE000F046FA3CE000F0D1
:10167000EDF839E000F064F836E000F001F933E00D
:1016800000F01CF930E000F0DFFA2DE0C82004F093
:10169000DBF800F0F7FA00F081F8002000F0B0F974
:1016A00000212548203081700221C1701CE000F02B
:1016B00027FC19E0002000F039FD00F093F800F05D
:1016C000E1FA00F06BF8002000F09AF900211A48C6
:1016D0002030817008E000F071F905E000F07AF93F
:1016E00002E000F06DF800BF00BF002012498876CC
:1016F00000F046F810482030807800281AD00E48B4
:10170000007E122816DD00F0BDFA00F091F90028E5
:1017100002D000F0E1F90AE000F040F8002000F00B
:101720006FF900210448203081700221C17000202F
:101730000149887600BF86E7040100206C01002083
:1017400010B50D48C07800020C4988820846808A8E
:101750000949097908430949888207484079000204
:1017600048820846408A04498979084303494882E7
:1017700001F07CFD10BD00006C010020B0000020D5
:10178000002000BF04E00021034A1154411CC8B2EC
:101790004028F8DB704700006C0100201FB504A34F
:1017A0000FCB6C460FC469460E2000F0DFF81FBD5A
:1017B00041542B44454550534C4545500D0A0000BB
:1017C0001FB504A30FCB6C460FC469460D2000F073
:1017D00029FA1FBD424C455F434D445F4552524F6D
:1017E0005200000010B586B000241422154901A84B
:1017F000FEF7B8FC00F074FB00F044FA00BF11E003
:101800001148005D002805D1302101AA204608308A
:10181000115405E00C48015D01AA2046083011541E
:10182000601CC4B20A2CEBDB0D21684681750A21CD
:10183000C17501A9142000F099F800F095F906B0DF
:1018400010BD0000005B0000F200002010B5002475
:1018500000BF06E0E01C0849095C08480155601C0F
:10186000C4B20A2CF6DB012104488172FFF7BAFFEB
:1018700001F0FCFC10BD00006C010020F200002013
:1018800010B5002400BF06E0E01C0A49095C0A48C4
:101890000155601CC4B2042CF6DB0648C079000276
:1018A0000449097A084304491A39888101F0DEFCA9
:1018B00010BD00006C010020CA00002010B50024FB
:1018C00000BF06E0E01C0A49095C0A480155601C9B
:1018D000C4B2042CF6DB0648C07900020449097A38
:1018E000084304491E39C88101F0C0FC10BD000046
:1018F0006C010020CE0000201CB50721684603F0D3
:1019000065FF002168464170012101706A4602218D
:10191000402001F0B1FE012000F072F87D20C000EF
:1019200003F092FF00F0AEF900F0C0FA0021084683
:1019300000F030FB00F0A6F900F044F9FFF752FF89
:1019400000F0A0F900F0FEF800F0A0FAFFF74AFE60
:1019500000F098F9FFF722FF002000F051F8002076
:10196000014988761CBD000004010020F8B5054639
:101970000F460024002619E0E8B2394600F052F97B
:10198000FF202D3003F060FF0BE00B48005D4F2877
:1019900005D10949601C085C4B2800D109E0601C96
:1019A000C4B23E2CF1DB0024701CC6B2022EE3DB75
:1019B00000BFFFF7E5FEF8BD6C01002010B503483D
:1019C000C1780348417401F051FC10BD6C01002046
:1019D000F000002010B500240748C0780002064936
:1019E000097908430446032C00DA032403480483DE
:1019F00001F03CFC10BD00006C010020B000002094
:101A00001CB504460721684603F0E0FE002C05D013
:101A10000021684641700121017003E00121684600
:101A2000417001716A460E21402001F025FE1CBD67
:101A3000FEB50024002500261CA207CA6B4607C37A
:101A40002EE069460A2000F0EDF8C82003F0FCFE05
:101A500014E01948005D4C280ED11749601C085C41
:101A6000692809D1A01C085C6E2805D1E01C085C1F
:101A70006B2801D1022503E0601CC4B23E2CE8DBD8
:101A800000BF0D49601D085C4F2805D1A01D085CF2
:101A90006E2801D1012600E000260024681CC5B292
:101AA000022DCEDBFFF76CFE3046FEBD41542B4CC1
:101AB000494E4B3F0D0A00006C010020054880781C
:101AC000002806D003482038007E401C01492039F8
:101AD00008767047240100200EB504A207CA6B46A1
:101AE00007C369460920FFF741FF0EBD41542B454E
:101AF0004E544D0D0A00000010B503F0B4F9A520B6
:101B00000E4908705A20487002208870002001F0A9
:101B100003FD0B49C88103F08DF90948C089001203
:101B20000649C8700648807B087155204871AA2074
:101B30008871072000F076F810BD0000300000200A
:101B4000040100201FB504A30FCB6C460FC46946E7
:101B50000F20FFF70BFF1FBD41542B50415353453E
:101B60004E3D4F46460D0A007CB50024002512A1CB
:101B700003C90191009019E06946062000F052F86F
:101B8000FF20F53003F060FE0BE00D48005D5728A4
:101B900005D10B49601C085C482800D109E0601C95
:101BA000C4B23E2CF1DB0024681CC5B2022DE3DB7D
:101BB00000BFFFF7E5FD7CBD41542B5A0D0A000024
:101BC0006C0100203EB50024002512A207CA6B4616
:101BD00007C319E069460B2000F024F8FF20F53018
:101BE00003F032FE0BE00E48005D572805D10C498A
:101BF000601C085C482800D109E0601CC4B23E2C7F
:101C0000F1DB0024681CC5B2022DE3DB00BFFFF747
:101C1000B7FD3EBD41542B4D4F44453D530D0A0089
:101C20006C01002070B505460E46002400BF05E09B
:101C3000315D044802F024FE601CC4B2AC42F7DB04
:101C400070BD00000002004010B50C48C1780C487F
:101C500001740A4800790002084949790843084993
:101C6000403908810548807900020449C979084350
:101C700003494039488101F0F9FA10BD6C01002098
:101C8000F000002008B504A0006800906946042018
:101C9000FFF76CFE08BD00002B2B2B6110B5002454
:101CA00001207749C877FFF742FAA52075490870E7
:101CB0005A204870012088707348807BC870724831
:101CC000C07B087100BF07E06F48801C015D601D8C
:101CD0006C4A1154601CC4B20A2CF5DB002408E0E5
:101CE00069481E38015D20460F30664A1154601C59
:101CF000C4B20F2CF4DB002408E063480E38015D09
:101D000020461E305F4A1154601CC4B20F2CF4DB15
:101D10005D48417C5B48203041735B484038008B14
:101D2000011258482030817357484038017E554889
:101D30002030C173544840380068010E51482030AB
:101D400041745148403800680002010E4D4820306F
:101D500081744D48403800880004010E4948203005
:101D6000C1744948403801784648203001754648DA
:101D70004038808A0112434820304175424840383B
:101D8000017D4048203081753F484038408A01122B
:101D90003C482030C1753C484038817C394820306F
:101DA00001763948017C3748203041763648403842
:101DB0000089011233482030817633484038017A57
:101DC00030482030C17630484038408901122D48D3
:101DD000203001772C484038817A2A4820304177DA
:101DE000002408E028482638015D20463E30254A78
:101DF0001154601CC4B2042CF4DB234840388089A1
:101E000001122048403081701F484038017B1D4836
:101E10004030C170002408E01B482238015D204694
:101E20004430184A1154601CC4B2042CF4DB164828
:101E30004038C089011213484030017212484038BE
:101E4000817B10484030417255218172AA21C172B4
:101E5000002406E00A48C07F002800D103E0601C8F
:101E6000C4B21E2CF6DB00BF074840380179054894
:101E70002030017403494C20FFF7D4FE10BD000050
:101E80000401002030000020F00000200EB504A264
:101E900007CA6B4607C369460A20FFF767FD0EBDF8
:101EA00041542B54504C3D390D0A000000B585B00B
:101EB000142206A16846FEF755F969461420FFF77B
:101EC00055FDFFF751FE05B000BD000041542B55F4
:101ED0004152543D393630302C382C302C300D0ADC
:101EE00010B50221402001F08FFB044803F0ACFC48
:101EF0000221402001F026FC10BD00004C0400002F
:101F000010B50548C08A0549C989401800B2024980
:101F1000C88201F0ABF910BDB00000200401002020
:101F200010B5FFF711FAFFF7EDF9FFF717FA0120E7
:101F30000149C87710BD00000401002010B5084811
:101F40004078002803D0012005492039C87704488B
:101F50002038C07F002801D0FFF7E9F810BD00004D
:101F6000240100200348006802210840014908605C
:101F7000704700000024004010B5054800680121AA
:101F8000084303490860022003F030FC10BD000044
:101F90000024004070B505460C46002D05D0FFF723
:101FA000C0FA2046FFF750FA04E0FFF729FA20466E
:101FB000FFF7E0F970BD000030B5024600201402C2
:101FC000034D631901248C40E4435C6130BD000083
:101FD000000C004030B5024600201402044D631985
:101FE0001C68240C24048DB22C431C6030BD0000FE
:101FF000000C004030B5024600201402044D631965
:102000005C68240C24048DB22C435C6030BD00005D
:10201000000C004010B5014600200B02034C1A19B9
:10202000D3685B085B005B1CD36010BD000C0040F4
:1020300010B5014600200B02034C1A19D368241571
:10204000A3431B19D36010BD000C004070B50346BC
:102050000A4600201C02224D6119CC68AD00AC4339
:1020600015782D030326360335402C43CC60CC680D
:1020700001256D02AC4355786D020126760235408C
:102080002C43CC60CC687510AC4395782D0276104B
:1020900035402C43CC60CC687025AC43D5782D01FD
:1020A000702635402C43CC60CC680825AC431579AC
:1020B000ED00082635402C43CC60CC680425AC43A9
:1020C0005579AD00042635402C43CC60CC68022500
:1020D000AC4395796D00022635402C43CC6070BD31
:1020E000000C004010B5C046C04610BD70B5024699
:1020F0000B46FF25FF2408E01178521C6940074871
:10210000405C604005460648445C18465E1EB3B21B
:102110000028F1D12802204370BD0000145B0000AC
:10212000145C000010B5C046C04610BD70B5054631
:1021300000246A20344988760E213348C176FE2176
:102140000177A821417731482F4988816A20887713
:102150000E212D48C177FE211E308170A821C1704B
:102160002A482949C88100200882FF202D30888212
:102170004820488203212448403081730121C173E3
:1021800001744174032020490883002008812048FD
:10219000488101F097F900201B49C882002D0BD01F
:1021A00000BF07E030211848323001551038015582
:1021B000601CC4B20F2CF5DB4A21134840308170FB
:1021C0004221801C4170572181704C21C170042430
:1021D00007E00D482230611D415C20300155601C34
:1021E000C4B20A2CF5DB002107484230817201F0AD
:1021F0003DF83F20800200F0AFFFAB213F2080027E
:1022000001F052F870BD0000B0000020594B0000F2
:10221000983A000070B504460E46154600BFE10628
:10222000C90E012088400E49086000BF3146204693
:1022300002F0A6FC012D08D100BFE106C90E012065
:1022400088400849086000BF09E000BFE106C90EE8
:102250000120884003498031086000BF00BF70BD85
:1022600080E200E000E100E01CB5002430A103C9D9
:102270000191009063203049C874084620304079AD
:10228000002803D16946082000F008FB01212A48F4
:102290002030417128498868FF212D31FDF7CAFFA0
:1022A000002843D024488068FF382D3822498860B0
:1022B000084620308079401CC1B21F48203081710F
:1022C00020E01E48005D20281AD102211A48203043
:1022D00081711A49601C085C30381749C874174965
:1022E000A01C085C2C280AD01348C07C0A21484353
:1022F000124AA11C515C303940180F49C87403E0E0
:10230000601CC4B23E2CDCDB00BF0B48203080795F
:10231000012807DD002108482030817141712038F3
:10232000816003E06946082000F0B8FA1CBD000097
:1023300041542B4353510D0A040100202C0100206D
:1023400010B500244848007D00287DD14648C07E55
:102350000128FAD14548C1794548417443488079FC
:10236000C007C00F002810D04048007A00063F493F
:10237000497A090408433D49897A090208433B49DF
:10238000C97A08433A4940390860384880790221BF
:10239000084002281CD13548007B354940398876F1
:1023A0003248417B32484038C1763048817B3048E2
:1023B000403801772D48C17B2D48403841772B4864
:1023C000007C00022949497C084329494039888119
:1023D0002648807904210840042811D12348807CB4
:1023E00000022249C97C08432149403988821F489C
:1023F000007D00021D49497D08431D49403948823E
:102400001A48807910210840102816D1002408E0CD
:10241000204616301549095C1548801C0155601C82
:10242000C4B20A2CF4DB01211148801C8172FFF731
:10243000D9F9FFF727FCFFF7B1F900F017FFA52046
:102440000A4908705A2000E00CE04870022404E0B9
:10245000002006490855601CC4B2402CF8DB00205F
:102460000149C87610BD000004010020AC01002025
:10247000F00000203EB5002424A207CA6B4607C323
:1024800025484079002803D169460B2000F006FA60
:10249000012121484171014620398868FF21F53129
:1024A000FDF7C8FE00282FD01B4820388068FF3871
:1024B000F53819492039886017488079401CC1B225
:1024C000154881710EE01548005D202808D1134998
:1024D000601C085C312803D115210F48817103E08D
:1024E000601CC4B23E2CEEDB00BF0B488079142880
:1024F00006DD00210848817141712038816003E0C8
:1025000069460B2000F0CAF93EBD000041542B4340
:10251000474154543F0D0A00240100202C010020A3
:10252000002000BF04E00021034A1154411CC8B23E
:102530004028F8DB704700002C0100207FB50546DD
:102540000B240B4B0FCB6E460FC66846011928466D
:1025500002F052FB0019C4B20D20694608550A2149
:102560006A46601C115469460E2000F0F3F87FBDE6
:10257000485D0000FEB500250024002623A207CAFE
:102580006B4607C33BE069460B2000F087F9FF204C
:102590002D3003F059F92DE01F48005D4F2827D159
:1025A0001D49601C085C4B2822D12546002408E008
:1025B0002846143800191849095C18480155601C50
:1025C000C4B20F2CF4DB15482030807A01280CD0DF
:1025D000002508E0114829460931425C2030291DB8
:1025E0004254681CC5B2062DF4DB00F03FFE09E042
:1025F000601CC4B23E2CCFDB0024701CC6B2022E7D
:10260000C1DB00BFFFF78CFFFEBD000041542B4330
:1026100047534E3D310D0A002C010020D20000200E
:10262000FEB50026002400251AA207CA6B4607C380
:1026300029E06946092000F031F9FF202D3003F030
:1026400003F91BE01648005D4F2815D11449601CA2
:10265000085C4B2810D12646002408E03046133889
:1026600000190F49095C0F480155601CC4B20F2CBA
:10267000F4DB00F0FBFD09E0601CC4B23E2CE1DBA2
:102680000024681CC5B2022DD3DB00BFFFF748FF52
:10269000FEBD000041542B43494D490D0A00000086
:1026A0002C010020E200002010B5012000F0A0F86D
:1026B00042E027480079002806D0012811D00228DE
:1026C00020D0032836D12AE000F0AAF8204840792B
:1026D000002805D11E480079401CC1B21C48017178
:1026E00029E000F05DFC1A484079002809D100215A
:1026F0000120FFF74FFC16480079401CC1B2144876
:10270000017118E0FFF7B6FE11484079002805D1A5
:102710000F480079401CC1B20D4801710BE0FFF772
:10272000A3FD0B484079002803D10021084801711E
:1027300003E000E000BF00BFBBE7FFF71BFFFFF7B0
:102740006FFFFEF7CDFE002000F052F810BD000034
:102750002401002070B505460E4600242248407929
:10276000002803D13146284600F098F801211E4880
:102770004171014620398868FF21F531FDF75AFD86
:1027800000282FD0184820388068FF38F5381649BF
:102790002039886014488079401CC1B21248817188
:1027A0000EE01248005D4F2808D11049601C085CFB
:1027B0004B2803D102210C48817103E0601CC4B294
:1027C0003E2CEEDB00BF08488079012806DD0021A1
:1027D0000548817141712038816003E03146284607
:1027E00000F05CF870BD0000240100202C010020E6
:1027F0001CB504460721684602F0E8FF002C05D00E
:102800000021684641700121017003E00121684602
:10281000417001716A460821402000F02DFF1CBD67
:1028200010B5002401211B484171014620398868F8
:102830006421FDF7FFFC00282AD016482038806864
:10284000643814492039886012488079401CC1B22C
:102850001048817119E01048005D522808D10E49D6
:10286000601C085C442803D1A01C085C592803D0D4
:10287000084880791E2806DD0021064881714171D3
:102880002038816003E0601CC4B23D2CE3DB00BF54
:1028900010BD0000240100202C01002070B5054669
:1028A0000E46002405E0315D034801F0E9FF601C9D
:1028B00084B2AC42F7DB70BD00400040F0B585B09B
:1028C000002700240020039000250290002601909C
:1028D0000090FE48008AFD49498A884207DAFC4890
:1028E000C078002803DCFA48007900287ED0F84838
:1028F0000079030002F036FF0504121F303D4A0044
:1029000001210846FFF746FB0120FFF771FFF04861
:102910000079401CC1B2EE48017138E0FFF780FF3A
:10292000EB484079002805D1E9480079401CC1B244
:10293000E74801712BE000F033FBE54840790028BF
:1029400009D100210120FFF725FBE1480079401C57
:10295000C1B2DF4801711AE0FFF78CFDDC48407915
:10296000002805D1DA480079401CC1B2D84801716D
:102970000DE0FFF779FCD6484079002805D1D4480E
:102980000079401CC1B2D248017100E000BF00BF15
:10299000CF480079052801DA05B0F0BD0021CC4808
:1029A0000171CA4820308078002804D0C748203000
:1029B000807C002803D1FFF7DDFDFFF731FEC3491E
:1029C000088AFF21DE31FDF73FFCC0B20290BF490B
:1029D000088AFF21DE31FDF737FC002903D0029879
:1029E000401CC0B20290A520BA4900E0C7E10870BF
:1029F0005A20487002988870B4484030807B8871B3
:102A0000B2484030C07BC871B1488078002806D0F9
:102A1000AF48C078052802D00421AD48C170AC4849
:102A2000C078AC490872002408E0A8484230015D33
:102A300020460930A74A1154601C84B20A2CF4DBEA
:102A4000002408E0A1482230015D20461330A14A4D
:102A50001154601C84B20F2CF4DB002408E09B4866
:102A60003230015D204622309A4A1154601C84B2F3
:102A70000F2CF4DB95484030417C9648203041745F
:102A800000240AE092482038C07F002800D106E0E8
:102A9000012002F0D9FE601C84B21E2CF2DB00BFC4
:102AA0008A4801798B482030817489482038C17C5C
:102AB00088482030C17486482038817C8548203081
:102AC000017582484030017C8248203041757F4842
:102AD000008901127F48203081757C48017A7D4849
:102AE0002030C1757948408901127A48203001763A
:102AF0007648817A77482030417674480068010E24
:102B0000744820308176714800680002010E7148D7
:102B10002030C1766D4800880004010E6D482030D9
:102B200001776A4801786B48203041776748808A8E
:102B300001126848203081776448017D6548203063
:102B4000C1776248408A01126248403001705F4894
:102B5000817C6048403041705D48C078002801DDCC
:102B600001200190F3E000200190701CC6B259488A
:102B7000C670012421E0711EFF22DE325143091983
:102B800088B200F097FA0546291203984230514A5C
:102B900011540398401C80B203900398423015549E
:102BA0000398401C80B20390FF20DE30844202D1A3
:102BB000601C84B20BE0601C84B2701EFF21DE3109
:102BC000484301194148008A401C8142D3DB00BFC1
:102BD000012E18DD701EFF21DE3148433B49898AF2
:102BE00048433A4909684718390E3A4820308176F7
:102BF0003802010E37482030C1763804010E3548BE
:102C0000203001774777601E4004040C2046463090
:102C100085B228122F4908714D7129462D48FFF7BA
:102C200065FA05462912204642302A4A1154401CB2
:102C300015545521401C1154AA21401C1154002543
:102C400080E023480079030002F08CFD05042C4C41
:102C5000596772000098002810D01C48C1891E30A6
:102C600000F0E4F81A48407900281AD1009018487A
:102C70000079401CC1B21648017112E013488189E5
:102C80001A3000F0D3F812484079002809D1009892
:102C9000401CC0B200900E480079401CC1B20C48E4
:102CA000017146E00A484079002807D100F06EF82B
:102CB0002146463188B20749FFF7F0FD00F08CF855
:102CC0000348407900280CD1014805E0B0000020FD
:102CD00024010020EC0100200079401CC1B22948E9
:102CE000017126E000F04CF926484079002805D112
:102CF00024480079401CC1B22248017119E001202A
:102D0000FFF71CFC1F484079002805D11D480079B9
:102D1000401CC1B21B4801710BE0FFF711FB00988A
:102D2000002803D000211748017100E00BE000E00B
:102D300000BF00BFFFF702F902F0B6F8FEF766FC2D
:102D400000F0F2FD7DE700210E480091017102982C
:102D5000864200DA07E701980028FBD10A48008A7A
:102D60000949498A884202DB002007490882FEF7A8
:102D7000B7FB0020FFF73CFD00210248C17000BFF7
:102D80000AE6000024010020B000002070B50024F5
:102D9000002518E00F48005D452812D10D49601C40
:102DA000085C52280DD1A01C085C522809D1E01CF7
:102DB000085C4F2805D1201D085C522801D101254F
:102DC00003E0601CC4B23C2CE4DB00BFFFF7A8FBAF
:102DD000284670BD2C01002010B501211248417118
:102DE0000146203988686421FDF724FA00281AD0AA
:102DF0000D482038806864380B49203988600A48BB
:102E00008079401CC1B2084881712038C07E0128F9
:102E100003D005488079502805DD002102488171E2
:102E200041712038816010BD2401002070B58EB042
:102E300005460E46152434222E4901A8FDF792F9C5
:102E40002D484079002851D101AA1119287801F0A4
:102E5000D3FE0019C4B22E2001A90855601CC4B2CB
:102E600001AA1119687801F0C7FE0019C4B22E201A
:102E700001A90855601CC4B201AA1119A87801F073
:102E8000BBFE0019C4B22E2001A90855601CC4B2B3
:102E900001AA1119E87801F0AFFE0019C4B222208E
:102EA00001A90855601CC4B22C200855601CC4B28E
:102EB00001A80119304601F09FFE0019C4B22C2070
:102EC00001A90855302101AA601C11542C21A01C15
:102ED00011543221E01C11540D21201D11540A21DE
:102EE000601D115401A9A01DFFF7D8FC00F006F8E1
:102EF0000EB070BD145D00002401002010B5002448
:102F000001211D4841710146203988686421FDF77F
:102F100091F900282ED01848203880686438164966
:102F20002039886014488079401CC1B212488171F0
:102F30001DE01248005D43280CD11049601C085C5C
:102F40004F2807D1A01C085C4E2803D1E01C085C68
:102F50004E2803D008488079502806DD0021064815
:102F6000817141712038816003E0601CC4B23E2C45
:102F7000DFDB00BF10BD0000240100202C01002079
:102F800008B505A000680090012104484171694618
:102F90000320FFF7DFFB08BD2B2B2B0024010020B3
:102FA0001FB504A30FCB6C460FC469460D20FFF775
:102FB000D1FB1FBD41542B4950523D393630300DA5
:102FC0000A00000010B5C046C046C046C04610BD4D
:102FD000F8B502460B460021264800900025264CF5
:102FE000012A0CD0022A0AD0042A08D0062A06D0C8
:102FF000082A04D00C2A02D004252846F8BD1E4811
:10300000006A01267602B0435E0201277F023E403D
:103010003043194E3062002107E08800174E3058C7
:1030200050438E00164FB851491C0829F5D3002192
:103030001CE01048009011E00098461E0096002801
:103040000AD010480C4EF0620F48F06288000C4E17
:1030500030588E00A05101E00720CFE788002058AB
:103060008E00074FBE59B042E6D1491C0829E0D373
:103070002846C3E7FFFFFF0000000240585D000044
:10308000FC0500205A5A0000A5A500000648074983
:10309000C8620748C862002008630348C862044841
:1030A000C8620020486370475A5A0000000002407E
:1030B000A5A500000146481E400001231B04C018BE
:1030C00002885810814201DD581E70471046FCE707
:1030D00070B504461548008A0121C903884200DD05
:1030E00070BD1249088AC117090E09180912090290
:1030F000411A03D00D49098A01290BD10B490D8AC8
:10310000E917090E49190912490201221204881807
:1031100000F022F80549098A491E490001221204DB
:103120008818214600F018F900BFD9E7B000002048
:1031300010B500BF01210846FFF74AFF0028F9D16A
:103140003F2080020078AB2802D00120FEF7EEFF7E
:1031500000F070F810BD000008B5024600232648B4
:103160000090C011824202D90423184608BD2248AB
:10317000009006E00098411E0091002801D109202E
:10318000F4E71E48006AC006C00F0028F2D100F024
:103190003BF81948009012E00098411E0091002869
:1031A0000BD017481549C8621648C8620846006A1D
:1031B00080088000801C086201E00920D6E70F48E3
:1031C000006A8007800F0228E6D1002010700A48AC
:1031D000009006E00098411E0091002801D10920CE
:1031E000C4E70648006AC006C00F0028F2D1FFF706
:1031F0004DFF1846BAE70000FFFFFF000000024045
:103200005A5A0000A5A5000007480849C8620848A6
:10321000C8620020C04308630348C8620448C8620B
:103220000020C043486370475A5A00000000024023
:10323000A5A5000030B595B000247F256D0200BF24
:1032400006E02868A1006A4650502D1D601CC4B2DB
:10325000152CF6DB542269460348FCF783FF002057
:103260000149088215B030BDB000002030B595B0DE
:1032700000247F256D0254220A496846FCF772FF3C
:103280002846FFF769FF00BF08E0A0006A46115812
:10329000284600F0B9F82D1D601CC4B2152CF4DBD3
:1032A00015B030BDB000002018B502460B46002412
:1032B00025480090C011824202D90424204618BD3E
:1032C0002148009006E00098411E0091002801D19D
:1032D0000920F4E71D48006AC006C00F0028F2D19B
:1032E0001948009012E00098411E009100280BD070
:1032F00017481649C8621748C8620846006A80081D
:103300008000401C086201E00920D8E70F48006AED
:103310008007800F0128E6D1FFF776FF13700A4877
:10332000009006E00098411E0091002801D109207C
:10333000C5E70648006AC006C00F0028F2D1FFF7B3
:10334000A5FE2046BBE70000FFFFFF000000024093
:103350005A5A0000A5A5000018B502460B460024E5
:1033600025480090C011824202D90424204618BD8D
:103370002148009006E00098411E0091002801D1EC
:103380000920F4E71D48006AC006C00F0028F2D1EA
:103390001948009012E00098411E009100280BD0BF
:1033A00017481649C8621748C8620846006A80086C
:1033B0008000401C086201E00920D8E70F48006A3D
:1033C0008007800F0128E6D1FFF71EFF13800A480F
:1033D000009006E00098411E0091002801D10920CC
:1033E000C5E70648006AC006C00F0028F2D1FFF703
:1033F0004DFE2046BBE70000FFFFFF00000002403B
:103400005A5A0000A5A5000018B502460B46002434
:1034100025480090C011824202D90424204618BDDC
:103420002148009006E00098411E0091002801D13B
:103430000920F4E71D48006AC006C00F0028F2D139
:10344000FFF7E2FE1848009012E00098411E00913C
:1034500000280BD016481549C8621648C8620846AD
:10346000006A80088000401C086201E00920D6E75D
:103470000E48006A8007800F0128E6D113600A48D1
:10348000009006E00098411E0091002801D109201B
:10349000C5E70648006AC006C00F0028F2D1FFF752
:1034A000F5FD2046BBE70000FFFFFF0000000240E3
:1034B0005A5A0000A5A5000002461068C840C0077F
:1034C000C00F70470148024908607047FF7B123BFC
:1034D0000401002038B5044600200090002C08D0DC
:1034E000032200A90331092001F068FC094988740E
:1034F00007E0032200A90331062001F05FFC054923
:1035000088740098C117090E0918091200910098D3
:1035100038BD000004010020F0B593B0064600203D
:103520001290282108A8FCF783FE0025002400BF84
:1035300007E03046FFF7CEFFA10008AA5050601CFC
:10354000C4B20A2CF5DB0A2108A802F019F90224FA
:1035500005E0A00008A908584519601CC4B2082C51
:10356000F7DB06212846FCF76FFE0546002E1BD030
:103570002846FDF75AFB0022164B01910090FDF7FB
:10358000B5F80022144B03910290FDF77FF800225A
:10359000124B05910490FDF753FB07910690FDF740
:1035A000C9FA00B2129011E00D49681AFDF77EFDCC
:1035B00007900C480168079802F0E2F90746FDF70A
:1035C00013FD0949C98A401A00B21290129813B02B
:1035D000F0BD00000000F0400000394000005940FC
:1035E000CCCC0C0004010020B000002070B50446D3
:1035F0000D46044960180022294601F02AFD0020EA
:1036000070BD0000100E024070B504460D4604491E
:1036100060180122294601F01CFD002070BD000049
:10362000140D0240F8B504460E4615460548A9009B
:103630004018071901223146384601F00AFD0020E2
:10364000F8BD0000300D024070B504460D46034938
:1036500060182946FFF730FF70BD0000040D0240DE
:1036600070B504460D46034960182946FFF724FF4C
:1036700070BD0000000E024070B504460E461546AF
:10368000214960180022314601F0E3FC00201F4967
:103690006118B20088502A781B49091F601831460A
:1036A00001F0D7FC6A7818490C396018314601F0EE
:1036B000D0FCAA78144910316018314601F0C9FCD9
:1036C000EA78114914316018314601F0C2FC2A79B8
:1036D0000D4918316018314601F0BBFC6A790A497E
:1036E00020316018314601F0B4FC0948806801219E
:1036F000C9038843A979C9030122D20311400843B1
:1037000003498860002070BD0C0D0240000C02408F
:10371000000F024010B50346024818188C000251F1
:10372000002010BD000C024070B504460D4604494F
:1037300060180122294601F08CFC002070BD0000B9
:103740000C0D024070B504460D4604496018012274
:10375000294601F07EFC002070BD0000100D0240E3
:1037600008B50020009000BF00980028FCD008BDDC
:1037700010B5C046C04610BD10B5C046C04610BD0D
:103780001CB50721684602F021F801216846417006
:1037900001716A4608210020FFF76EFF6A46092181
:1037A0000020FFF769FF6A460A210020FFF764FF47
:1037B0001CBD1CB50721684602F008F800216846C8
:1037C0004170012101706A4608210020FFF754FF73
:1037D0006A4609210020FFF74FFF6A460A210020B0
:1037E000FFF74AFF1CBD00001149097B022211436B
:1037F0000F4A1173632800D17047082805DD0C4972
:10380000497B202211430A4A5173102805DD0849DB
:10381000497B04221143064A5173182805DD0449E7
:10382000497B02221143024A517300BFE4E70000C2
:10383000EC0500201149897B012211430F4A917345
:103840006E2800DA70476E2805DB0C49897B202240
:1038500011430A4A9173722805DD0849897B1022B9
:103860001143064A9173752805DD0449897B0222BC
:103870001143024A917300BFE4E70000EC05002009
:1038800000B502460020002901D008231843130088
:1038900001F068FF0A06090C0F1215181B1E2124DF
:1038A000F52318431BE06023184318E0B6231843A0
:1038B00015E0F223184312E0632318430FE0D323EB
:1038C00018430CE0D723184309E07023184306E09F
:1038D000F723184303E0F323184300E000BF00BFC1
:1038E00000BD70B50A210020FFF72CFF00F0ACFCF2
:1038F00009210020FFF726FF00250AE00A21002009
:10390000FFF7A2FE002801D1002404E00124681C76
:10391000C5B2022DF2DB00BF09210020FFF774FEC3
:1039200000F0A0FC204670BD70B50024002537488B
:103930004078002868D035484078022804D100F04B
:103940006FF8012131484170C82001F07DFF00244B
:1039500004E000202E490855601CC4B2102CF8DB8E
:1039600001F081FA0020FFF7D7FD0646012100F0A3
:10397000C3FA0120FFF7D0FD24492039888101F0E6
:1039800059FA224920390C20085E102100F024FE4B
:10399000002407E01D482038C07F002800D103E044
:1039A000601CC4B21E2CF5DB00BF1A490879FFF772
:1039B00041FF16492039C87CFFF716FF134880786D
:1039C000002801D00120054303210020FFF73CFE21
:1039D000002801D008200543284600F0B3FD01204F
:1039E00000F016FC09482038008A00280CD1FFF7A7
:1039F000C7FE00210548417006484030407C002841
:103A000002D005210148C17070BD000024010020D2
:103A1000EC050020B000002010B5C046C04610BD27
:103A200008B500210091FFF7C4FE642001F00CFFEF
:103A3000EA2100910121684600F036FE642001F081
:103A400003FFBC2100910121684600F02DFE0020FB
:103A500000F0DEFBC82100910121684600F024FE41
:103A600001210148417008BD2401002000B5030078
:103A700001F078FE0A0619203346596C7F8C9FB2FC
:103A8000574949790C221143554A51711146897998
:103A900011221143524A91711146C97B09221143E7
:103AA0004F4AD17399E04E49C97B092211434C4AD0
:103AB000D17392E04A49497908221143484A517129
:103AC0001146897951221143454A91711146C97BAA
:103AD0000C221143424AD1737FE0414949790822BF
:103AE00011433F4A517111468979412211433C4AA1
:103AF00091711146C97B0D221143394AD1736CE093
:103B00003749497904221143354A5171114689795F
:103B100040221143324A91711146C97B0D22114353
:103B20002F4AD17359E02E4949790C2211432C4A6E
:103B300051711146897941221143294A91711146E7
:103B4000C97B05221143264AD17346E024494979AD
:103B50000C221143224A5171114689795122114395
:103B60001F4A91711146C97B052211431C4AD1732A
:103B700033E01B49497908221143194A5171114612
:103B8000C97B09221143164AD17326E014494979A9
:103B90000C221143124A5171114689795122114365
:103BA0000F4A91711146C97B0D2211430C4AD17302
:103BB00013E00B4949790C221143094A517111460E
:103BC000897941221143064A91711146C97B0D2220
:103BD0001143034AD17300E000BF00BF00BD0000E5
:103BE000EC05002070B505460E464E4C012E06D061
:103BF000022E08D0032E08D0042E0DD108E028464E
:103C000000F092F870BD474C07E0464CA41C04E05D
:103C10002846FFF72BFFF5E700BF00BF2B0001F0A0
:103C2000A1FD0A06131825323F4C59626F7C20789B
:103C30000C21084320706078112108436070A0783F
:103C400090210843A07069E0A07890210843A070FB
:103C500064E02078082108432070607851210843EF
:103C60006070A078C0210843A07057E02078082138
:103C7000084320706078412108436070A078D0210B
:103C80000843A0704AE0207804210843207060783F
:103C9000402108436070A078D0210843A0703DE027
:103CA00020780C210843207060784121084360701F
:103CB000A07850210843A07030E020780C21084300
:103CC00020706078512108436070A078502108432B
:103CD000A07023E02078082108432070A07890216C
:103CE0000843A0701AE020780C2108432070607807
:103CF000512108436070A078D0210843A0700DE0E6
:103D000020780C21084320706078412108436070BE
:103D1000A078D0210843A07000E000BF00BF00BF22
:103D200070E70000ED05002000B5030001F01AFD6A
:103D30000A0619203346596C7F8C9FB25749C97BBC
:103D4000C0221143554AD1731146097811221143FB
:103D5000524A117011464978902211434F4A5170CE
:103D600099E04E494978902211434C4A517092E0B3
:103D70004A49C97B80221143484AD17311460978C8
:103D800051221143454A117011464978C02211430E
:103D9000424A51707FE04149C97B802211433F4A2A
:103DA000D17311460978412211433C4A11701146E2
:103DB0004978D0221143394A51706CE03749C97BA8
:103DC00040221143354AD1731146097840221143EC
:103DD000324A117011464978D02211432F4A51704E
:103DE00059E02E49C97BC02211432C4AD173114698
:103DF000097841221143294A11701146497850220D
:103E00001143264A517046E02449C97BC022114320
:103E1000224AD17311460978512211431F4A117069
:103E200011464978502211431C4A517033E01B4916
:103E3000C97B80221143194AD173114649789022D7
:103E40001143164A517026E01449C97BC022114320
:103E5000124AD17311460978512211430F4A117049
:103E600011464978D02211430C4A517013E00B4996
:103E7000C97BC0221143094AD173114609784122F6
:103E80001143064A117011464978D0221143034A62
:103E9000517000E000BF00BF00BD0000EC05002035
:103EA000C107C90F002905D01249497902221143DF
:103EB000104A517102210140002905D00D49C978ED
:103EC000012211430B4AD17004210140002905D081
:103ED0000849497802221143064A517008210140DD
:103EE000002905D00349C97802221143014AD17043
:103EF00070470000EC050020F8B504460D46284642
:103F000000F092FB204600F0A9F85048408900B22A
:103F1000A04204DB4D48008900B2A04205DD4C48B8
:103F2000407B402108434A4948734A48844200DDA7
:103F30000446002C07DA604204B24548C07A2021CA
:103F400008434349C8727D20C00084422EDA0A210A
:103F50002046FCF779F9CEB200213046FFF790FCFD
:103F60003B49C97908433A49C8710A212046FCF700
:103F70006BF907460A21FCF767F9CEB201213046FA
:103F8000FFF77EFC3249097A0843314908726421FF
:103F90002046FCF759F9C6B200213046FFF770FC05
:103FA0002B49497A08432A494872F8BD2A48844275
:103FB00008DB2748C07A802108432549C872264873
:103FC000201A04B20A212046FCF73EF9CEB20021A5
:103FD0003046FFF755FC1E49C97908431C49C87192
:103FE0000A212046FCF730F907460A21FCF72CF994
:103FF000CEB201213046FFF743FC1549097A084348
:104000001349087264212046FCF71EF907460A216D
:10401000FCF71AF9CEB200213046FFF731FC0C490B
:10402000497A08430A4948727D21C9002046FCF7B5
:104030000BF9C6B200213046FFF722FC0449897A09
:1040400008430349887200BFAFE70000B0000020BA
:10405000EC050020C849000010270000FEB504460A
:104060005F4840895E490989401A87B25D48C07A35
:10407000022108435B49C8720846C07B20210843DF
:104080005849C873002C00DCFEBD002C05DD5548E6
:10409000C07A042108435349C8720A213846FCF704
:1040A000D3F8A04205DA4F48C07A082108434D49A9
:1040B000C87205213846FCF7C7F8A04205DA49481E
:1040C000007B80210843474908733846FCF7B5FD5B
:1040D0000546454A454BFCF709FB01910090FCF76A
:1040E0005FFD80B2A04205DA3E48007B082108430C
:1040F0003C4908733846FCF7A0FD054600223C4BBE
:10410000FCF7F4FA01910090FCF74AFD80B2A0425E
:1041100005DA3448007B0421084332490873F90F5B
:10412000C9194910A14205DA2E48407B8021084375
:104130002C4948733846FCF780FD05462D4A2E4B26
:10414000FCF7D4FA01910090FCF72AFD80B2A0425E
:1041500005DA2448407B0821084322494873384641
:10416000FCF76BFD0546254A254BFCF7BFFA01918C
:104170000090FCF715FD80B2A04205DA1948807B5B
:1041800080210843174988733846FCF756FD0546D9
:1041900000221C4BFCF7AAFA01910090FCF700FDED
:1041A00080B2A04205DA0F48807B082108430D4900
:1041B00088733846FCF741FD0546134A134BFCF75C
:1041C00095FA01910090FCF7EBFC80B2A04205DA71
:1041D0000448807B042108430249887300BF53E7E9
:1041E000B0000020EC050020A4703D0AD7A30A40CF
:1041F00000000440B81E85EB51B8FA3FE17A14AED6
:1042000047E1F63F0000F43FC3F5285C8FC2F13F61
:1042100030B585B00546002414216846FCF708F83F
:10422000002D09D000BF05E00648015D6A46601C0C
:104230001154C4B2102CF7DB1121684600F034FA97
:1042400005B030BDEC0500201CB50721684601F023
:10425000BDFA0120694648706A460A210020FFF72E
:104260000BFA1CBD1CB50721684601F0AFFA00200F
:10427000694648706A460A21FFF7FEF91CBD70B511
:104280000446002500BF80202040002804D00A21D9
:104290000020FFF757FA03E00A210020FFF7B4F9E6
:1042A00009210020FFF74EFA6006040E681CC5B213
:1042B00009210020FFF7A8F9082DE4DB70BD0000FC
:1042C00070B50446002C7CDB7D20C000844222DADD
:1042D0000A212046FBF7B8FFCDB204212846FFF79C
:1042E00081FC0A212046FBF7AFFF06460A21FBF7B7
:1042F000ABFFCDB203212846FFF774FC64212046B2
:10430000FBF7A2FFC5B202212846FFF76BFC022093
:10431000FFF7C6FD70BD7848844230DA0A21204696
:10432000FBF792FFCDB204212846FFF75BFC0A2180
:104330002046FBF789FF06460A21FBF785FFCDB231
:1043400003212846FFF74EFC64212046FBF77CFF43
:1043500006460A21FBF778FFCDB202212846FFF777
:1043600041FC7D21C9002046FBF76EFFC5B201214B
:104370002846FFF737FC0220FFF792FDCAE70A2123
:104380002046FBF761FF06460A21FBF75DFFCDB231
:1043900004212846FFF726FC64212046FBF754FF42
:1043A00006460A21FBF750FFCDB203212846FFF74E
:1043B00019FC7D21C9002046FBF746FF06460A216D
:1043C00000E013E0FBF740FFCDB202212846FFF7E3
:1043D00009FC49492046FBF737FFC5B201212846B1
:1043E000FFF700FC0120FFF75BFD83E0604204B2B1
:1043F0004248007840210843404908700846407808
:10440000402108433D4948707D20C000844222DAA3
:104410000A212046FBF718FFCDB204212846FFF7FA
:10442000E1FB0A212046FBF70FFF06460A21FBF7B6
:104430000BFFCDB203212846FFF7D4FB64212046B1
:10444000FBF702FFC5B202212846FFF7CBFB022093
:10445000FFF726FD5EE72848844227DA0A21204636
:10446000FBF7F2FE06460A21FBF7EEFECDB2042171
:104470002846FFF7B7FB64212046FBF7E5FE06461A
:104480000A21FBF7E1FECDB203212846FFF7AAFB84
:104490007D21C9002046FBF7D7FEC5B20221284680
:1044A000FFF7A0FB0120FFF7FBFC33E76421204668
:1044B000FBF7CAFE06460A21FBF7C6FECDB2042171
:1044C0002846FFF78FFB7D21C9002046FBF7BCFE85
:1044D00006460A21FBF7B8FECDB203212846FFF7B6
:1044E00081FB05492046FBF7AFFEC5B202212846F5
:1044F000FFF778FB00BF0DE710270000EC05002058
:1045000010B50A210020FFF71DF909210020FFF74F
:1045100019F90A210020FFF777F809210020FFF799
:1045200073F810BD10B5FFF79DFE0A210020FFF7BC
:104530006BF809210020FFF705F90A210020FFF799
:1045400001F910BDC107C90F002905D02149097B18
:10455000402211431F4A117302210140002905D056
:104560001C49097B202211431A4A1173042101407E
:10457000002905D01749497B40221143154A517340
:1045800008210140002905D01249897B40221143AE
:10459000104A917310210140002905D00D49C97AB4
:1045A000102211430B4AD17220210140002905D06D
:1045B0000849C97A20221143064AD172402101409C
:1045C000002905D00349C97A40221143014AD1721A
:1045D00070470000EC05002070B505460C462046EB
:1045E00000F022F82846FFF76BFE70BD0B48008BE9
:1045F0000B49884200D170470A48407800280BD008
:1046000008482038008A002806D006482038008A4A
:10461000401E04492039088200BFECE7B0000020AA
:10462000FFFF000024010020C107C90F002905D0A9
:104630001C49C97A012211431A4AD1720221014050
:10464000002905D01749097B10221143154A11731F
:1046500004210140002905D01249097B01221143A0
:10466000104A117308210140002905D00D49497BEA
:10467000102211430B4A517310210140002905D02B
:104680000849497B01221143064A51732021014008
:10469000002905D00349C97B10221143014AD17377
:1046A00070470000EC05002070B504460D46FFF78A
:1046B00027FF7C20FFF7E3FDFFF713F9002803D065
:1046C000FFF730FF012070BD0DE02078FFF7D7FD28
:1046D000FFF707F9002803D0FFF724FF0220F2E7D5
:1046E000641C681EC5B2002DEFD1FFF71BFF002030
:1046F000E9E710B500F0E6F8C046C04610BD00007E
:104700000EB50A21684601F061F80121092000F088
:10471000E5FE0321684601700021C170817003210C
:104720004170002101714171012181710B490181A9
:1047300069460B4800F0C3F9094800F09BF90121D4
:10474000074800F0AAF9012203211120FDF762FDBC
:104750000121034800F097F90EBD0000104500004C
:10476000000F004010B500F0E1F810BD10B500F0EA
:1047700003F910BD70B504460D46002229462046B7
:10478000143000F066FC002070BD70B504460D4684
:1047900000222946201D00F05CFC002070BD70B591
:1047A00004460D4601222946201D00F052FC00203F
:1047B00070BD70B504460D4601222946201D00F04B
:1047C00048FC002070BD70B504460D460026294601
:1047D00020461030FEF770FE0646304670BD0000E1
:1047E000F0B587B005460C460127224A07CA04AB3C
:1047F00007C300200390002C02D1042007B0F0BDB5
:1048000000206860608861780843E1880843A188D7
:1048100008432178084368602078402802D0207837
:10482000C02824D1E088C117C90D09184912890090
:1048300004AA515A8EB2E168B1400846FCF73EFC2A
:104840000290A068FCF73AFC01900299FCF71CFB6F
:1048500003903F210906039801F04CF80290FCF701
:10486000E9FB80B2A86104212846FFF798FF0027E2
:104870003846C3E7785D000001460868C0B270475B
:1048800070B504460D4600BF03212046FFF79BFF8D
:104890000028F9D02068000A0002E9B2084320602D
:1048A00000BF01212046FFF78EFF0028F9D001212B
:1048B0002046FFF75FFF002070BD10B5C046C04620
:1048C00010BD000010B5164800F0F1F8012826D1FF
:1048D000134800F0CFF8FFF789FEFDF7EFF8114815
:1048E000807F002804D10F484068401C0D49486073
:1048F0000C4840680A2148430B49898A88420ED3F4
:10490000002008494860012088770748008A401C39
:104910000549498A884202DB01200249C87710BD57
:10492000000F004004010020B000002010B500215D
:104930000E48FFF71FFF02200D4988750120887679
:10494000002008760948FFF797FF0949C97D094A01
:1049500050540748C07D401C0549C8750846C07DB5
:104960003F2801DD0020C87510BD00000002004096
:10497000040100206C01002010B500212948FFF738
:10498000F9FE0220284908750846007F012820D139
:104990002448FFF771FF2449497F244A5054224894
:1049A000407F401C204948770846407F801E1146C2
:1049B000085C552827D11C48407F401E085CAA2867
:1049C00021D101201849C8760020087702204877B5
:1049D00019E01448FFF750FF1349497D144A505419
:1049E0001148407D401C1049487510460078A528A4
:1049F00009D1104640785A2805D1012008770020B7
:104A00004875114608700848407F3F2802DD0020A5
:104A1000054948770448407D3F2802DD00200249CF
:104A2000487510BD0040004004010020AC0100208A
:104A30002C0100200E48007D002805DD0C48007D7B
:104A4000401E0B49087505E00020094948750877A4
:104A5000022048770648807D002805DD0448807DD7
:104A6000401E0349887502E000200149C87570475F
:104A70000401002010B504460022114620461430DF
:104A800000F0E7FA10BD70B505460C46224600213D
:104A900028460C3000F0DDFA70BD70B505460C46B6
:104AA00022460A2128460C3000F0D3FA70BD10B51A
:104AB0000446002120461030FEF7FEFC10BD30B544
:104AC00002467D23DB00D0680724E402A0430C7873
:104AD000E4020725ED022C402043D060D06830244A
:104AE000A0434C78240130252C402043D060D0686E
:104AF00001246402A0438C78640201256D022C40DD
:104B00002043D060D0686C10A043CC7824026D1094
:104B10002C402043D060D0680824A0430C79E400E6
:104B200008252C402043D060D0680424A0434C7951
:104B3000A40004252C402043D060D0680224A04368
:104B40008C79640002252C402043D06005E0D068B9
:104B50000006C00F002800D004E018465C1EA3B277
:104B60000028F4D100BF002B01D1092030BD5068CE
:104B7000000C00040C89204350600020F6E7000080
:104B800010B5002819DA1A4A03071B0F083B9B08C7
:104B90009B00D2588307DC0EFF23A3409A438B0768
:104BA0001B0E8407E40EA3401A43114B0407240F85
:104BB000083CA408A4001A5118E00E4A03231B0263
:104BC000D21883089B00D2588307DC0EFF23A34032
:104BD0009A438B071B0E8407E40EA3401A43054B30
:104BE000032424021B198408A4001A5110BD0000DC
:104BF0001CED00E000E100E0F8B505460C4600269B
:104C00000A2D04DA01262846303020707DE0642D1C
:104C10000DDA02260A212846FBF716FB30302070F9
:104C20000A212846FBF710FB303161706DE07D20D2
:104C3000C000854217DA032664212846FBF704FBEF
:104C4000303020700A212846FBF7FEFA07460A2179
:104C5000FBF7FAFA303161700A212846FBF7F4FAC3
:104C60003031A17051E02A48854222DA04267D21A4
:104C7000C9002846FBF7E8FA303020706421284646
:104C8000FBF7E2FA07460A21FBF7DEFA30316170E2
:104C90000A212846FBF7D8FA07460A21FBF7D4FA7F
:104CA0003031A1700A212846FBF7CEFA3031E1708D
:104CB0002BE0052616492846FBF7C6FA303020704F
:104CC0007D21C9002846FBF7BFFA07460A21FBF7FA
:104CD000BBFA3031617064212846FBF7B5FA07460C
:104CE0000A21FBF7B1FA3031A1700A212846FBF7FF
:104CF000ABFA07460A21FBF7A7FA3031E1700A2127
:104D00002846FBF7A1FA303121713046F8BD00008A
:104D10001027000010B5C046C04610BD10B5C046F3
:104D2000C04610BD10B5C046C04610BD10B500F05D
:104D30000DF810BD10B5C046C046C046C04610BDF7
:104D400010B5C046C046C046C04610BD10B50F21C4
:104D50004020FEF785FC002810D00F214020FEF7F0
:104D600045FC1248008B12490882084620304078E2
:104D7000002803D102210E48203041700D2140202F
:104D8000FEF76EFC002810D00D214020FEF72EFC0F
:104D90000648008B064908820846203040780028E3
:104DA00003D1022102482030417010BDB000002024
:104DB0000401002010B5C046C04610BD70B50646BF
:104DC0000D46144600F023F9DA2000F000F900F057
:104DD0008BF8002803D000F02CF9012070BD30467C
:104DE00000F0F5F800F025F900F011F9DB2000F0F3
:104DF000EEF800F079F8002803D000F01AF901204D
:104E0000ECE709E0284600F092F8012C01DD00F003
:104E1000CCF86D1E601EC4B2002CF3D100F009F96D
:104E20000020DBE710B5C046C04610BD10B5C04637
:104E3000C04610BD1CB50721684600F0C7FC012123
:104E40006846417001716A460F210020FEF714FC8C
:104E50006A460B210020FEF70FFC6A460C21002059
:104E6000FEF70AFC1CBD1CB50721684600F0AEFC2D
:104E7000002168464170012101701C2000F02EFBCA
:104E80006A460B210020FEF7F7FB6A460C21002042
:104E9000FEF7F2FB6A460F210020FEF7EDFB7D20B6
:104EA000C00000F0D1FC1CBD08B5002000900C48EB
:104EB000807F002813D0FFF7D6FF0A48008A401CE5
:104EC000084908820020FEF727FB00906946088801
:104ED000FEF7FEF8002002498877FFF7ABFF08BD18
:104EE00004010020B000002070B50C210020FEF766
:104EF00029FC00F03FF80B210020FEF723FC0025E1
:104F00000AE00C210020FEF79FFB002801D10024BD
:104F100004E00124681CC5B20A2DF2DB00BF0B219E
:104F20000020FEF771FB00F033F8204670BD70B52D
:104F30000646002400F01EF8002515E00B21002095
:104F4000FEF700FC0C210020FEF77EFB002801D0BC
:104F500001200443072D01DA6006040E0B21002016
:104F6000FEF752FB681CC5B2082DE7DB347000F079
:104F70000FF870BD1CB50721684600F027FC012022
:104F8000694648706A460C210020FEF775FB1CBD7F
:104F90001CB50721684600F019FC002069464870DE
:104FA0006A460C21FEF768FB1CBD10B5FFF7F0FF49
:104FB0000C210020FEF728FB0B210020FEF7C2FB8E
:104FC0000B210020FEF720FBFFF7D4FF10BD70B5CA
:104FD0000446002500BF80202040002804D00C217A
:104FE0000020FEF7AFFB03E00C210020FEF70CFBD6
:104FF0000B210020FEF7A6FB6006040E681CC5B25C
:105000000B210020FEF700FB082DE4DB70BD10B57E
:105010000C210020FEF796FB0B210020FEF792FBEF
:105020000C210020FEF7F0FA0B210020FEF7ECFA2D
:1050300010BD10B5FFF7ACFF0C210020FEF7E4FA1D
:105040000B210020FEF77EFB0C210020FEF77AFBEF
:1050500010BD10B5012A05D1036801248C402343FB
:10506000036004E0036801248C40A343036010BD87
:1050700010B5FCF7A6FA01211C2000F02FFA002041
:105080001949C86018494031C86017498031C86063
:105090001549C031C8601549C86014494031C8601D
:1050A0001348114908601049403108600E498031A9
:1050B00008600D49C03108600C4908600B49403157
:1050C0000860094948620849403148620649803110
:1050D00048620549C0314862044948620349403189
:1050E0004862FCF74AFA10BD000D0240001D024064
:1050F000FFFF000010B5C046C04610BD70B50446A5
:1051000000252078030000F02DFB0504050C101885
:105110001C0018E0032000F065FA032000F02CFAD0
:1051200011E0032000F002FA0DE00321084600F030
:1051300067FA032000F030FA05E0072000F0BCF920
:1051400001E0042500BF00BF2078012100F00CF829
:10515000207800F031FA607800F086F9A07800F04D
:1051600097F9284670BD0000F8B505460C460027A3
:1051700000F0ECFA002C01D0012000E000200446F1
:105180005048066A2B0000F0EDFA050417394D70FF
:1051900096004C48006840084000E107C90F0843EA
:1051A0004849086000BF002C05D04648C06800058B
:1051B000C00F0028F7D080E04248006A01210907AB
:1051C000884340183F4908623F48C06803210843AC
:1051D0003D49C8603B4800680221884361000222C3
:1051E000114008433749086000BF002C05D03548FE
:1051F00000694006C00F0028F7D05EE03148006823
:1052000004218843A1000422114008432D4908606D
:1052100000BF002C05D02B484069C004C00F0028F7
:10522000F7D04AE02748006A01210907884340185F
:10523000244908622548C06803218903084323499B
:10524000C8602048006808218843E1000822114016
:1052500008431C49086000BF002C05D0194880692C
:105260004006C00F0028F7D027E01648006A012149
:10527000090488434018134908621548006840082B
:105280004000401C12490860142000F0AFFA0D489D
:105290000068102188432101102211400843094968
:1052A000086000BF002C05D00648C06B4003C00F4B
:1052B0000028F7D001E0042700BF00BF01480662C4
:1052C0003846F8BD00200040401D0240800D0240DD
:1052D0000024004030B589B000241422564904A8A7
:1052E000FAF740FF54481430006803900020009003
:1052F0000190029051480188684601814F484188D9
:105300006846C1804D488188684681804B48C18885
:1053100068464180494820300188684601804848F5
:1053200000680006450F2B0000F01CFA05042E3023
:105330003E4178004248C0684005400D69460989F1
:10534000884201D1089C1EE03D48C0684005400DE0
:105350006946C988884201D1079C14E03848C06872
:105360004005400D69468988884201D1069C0AE0C3
:105370003348C0684005400D69464988884201D1DC
:10538000059C00E0049C4BE02E4C49E068460088F8
:105390002B4949698905890D884202D16846C4892B
:1053A00001E0684684893BE00124E40338E02448B6
:1053B000C06B8007800F032829D1684600892049E7
:1053C000C9684905490D884201D1089C20E068461A
:1053D000C0881B49C9684905490D884201D1079C0D
:1053E00016E0684680881649C9684905490D884213
:1053F00001D1069C0CE0684640881149C9684905FE
:10540000490D884201D1059C02E0049C00E00D4C4E
:105410000B48C06BC005000F444301E0002400BFEF
:1054200000BF074800684005410F2046C8400446B9
:10543000204609B030BD0000845D0000000C100063
:10544000002000400048E80110B50024FFF742FFAB
:10545000044604480068C004810F2046C840044642
:10546000204610BD0020004010B5044600F06EF943
:105470000648006807210902884321020722120218
:105480001140084301490860002010BD0020004081
:1054900010B5044600F05AF9064800680321C90215
:1054A0008843E1020322D202114008430149086007
:1054B000002010BD0020004010B501460020064A23
:1054C000D26B0723DB039A43CB030724E403234077
:1054D0001A43014BDA6310BD0020004070B504464A
:1054E0000D4620202040002814D02021204688434B
:1054F00004462A4621460B48FFF7ABFD032C02D198
:10550000094805700CE00848027803210548FFF7B8
:10551000A0FD05E02A4621460248001FFFF799FD3D
:10552000002070BD242000400000002010B501467E
:105530000020064A526903239B029A438B020324EC
:10554000A40223401A43014B5A6110BD00200040C1
:1055500001464A00064BD21812889005800D054A74
:105560005269920A92020243024B5A61002070472C
:10557000000C10000020004010B501460020054A34
:10558000126930239A430B01302423401A43014B04
:105590001A6110BD0020004010B501460020054AE8
:1055A000926930239A430B01302423401A43014B64
:1055B0009A6110BD0020004070B5044600252646C3
:1055C00000F0C4F806480068E02188437101E02239
:1055D000114008430249086000F02CF8284670BDCD
:1055E0000020004001460020044A126992089200FF
:1055F0008B079B0F1A43014B1A6170470020004034
:1056000030B5024600200A4B9B690C24A34394004A
:105610000C252C402343064CA36123469B699B0821
:105620009B008C07A40F2343014CA36130BD0000F5
:1056300000200040704700B5FFF7FCFF00BD10B52B
:1056400000F01AF810BD10B5C046C04610BD10B528
:10565000C046C04610BD10B5C046C04610BD10B50E
:10566000C046C04610BD10B5C046C04610BD10B5FE
:10567000C046C04610BD000010B500210846FCF72A
:105680009BFCFFF7D7F908484079002807D0064867
:10569000203880680A3004492039886003E00020FF
:1056A00001492039886010BD2401002000B585B073
:1056B0001421684600F08AF801210820FFF70EFF48
:1056C00000216846017041710321C170012181717F
:1056D000002101718170417069460020FCF7B6FC21
:1056E0000C490020FCF776FC0A490020FCF782FCFC
:1056F00000210846FCF760FC0020FCF799FC012221
:1057000003210E20FCF786FD0020FCF783FC05B08A
:1057100000BD000077EC000010B5C046C046C04692
:10572000C04610BD10B5C046C046C046C04610BDFC
:1057300010B5C046C04610BD10B5C046C046C046F4
:10574000C04610BD10B5C046C04610BD0248034952
:1057500088600348886070475A5A00000020004063
:10576000A5A5000030B47446641E2578641CAB42C5
:1057700004D3635D5B00E31830BC18471D46F8E7AF
:1057800070B5024600230020002400BF1AE000206C
:1057900012E085005659451CAD005559AE4209DD51
:1057A00085005459451CAD00555986009551451C3E
:1057B000AD005451451CE8B24D1EED1A8542E8DC9F
:1057C0005D1CEBB24D1E9D42E1DC70BD10B50A467A
:1057D0000146002900D110BD02E000230B70491CD6
:1057E0001346521E002BF8D100BFF4E770B50546F2
:1057F00011481249486100208861052008610FE0C6
:1058000000200E4988610E490E480068FAF712FD23
:10581000012109060C1A00BF08488069A042FBD884
:1058200028466D1E0028EBD104480069400840005E
:105830000249086170BD0000FFFFFF0000E000E0CA
:10584000A08601000400002070B5054611481249E9
:105850004861002088610520086110E000200E49A1
:1058600088617D21C9000D480068FAF7E3FC012139
:1058700009060C1A00BF08488069A042FBD82846D8
:105880006D1E0028EAD10448006940084000024922
:10589000086170BDFFFFFF0000E000E00400002091
:1058A0001348FFF7D1FFFFF7E3FBFDF741FC0121B0
:1058B0000020FCF76FFB01210846FCF76BFBFDF7AE
:1058C00001FEFFF7F3FEFCF7EFFEFCF715F8FCF71F
:1058D00027FBFEF715FF09E0FCF730FBFFF7E4FAC2
:1058E000FBF794FEFEF720F8FCF7E8FFF4E7000072
:1058F0008813000070B501250400ED074C4020D44A
:10590000441A01D2001B0919C60D4B00F2B2FF2A3E
:1059100029D01B0E2CD000020C02D31A2C43DC40E1
:105920002843051910D2280A02D3401C6D0611D055
:10593000761EF6058019FF2A00DA70BDC00DC0057D
:1059400070BD694000F07AF801200543C541521C42
:10595000761CE8E764089C40C90161408900E7D1F2
:105960000124A043E4E71B0E440200D0034870BDAD
:10597000002AFCD1C00FC00770BD00BF0000C07F6F
:1059800070B5420064414B005C41120E39D01B0ED1
:1059900038D0FF2A3CD0FF2B3AD040024902400ABF
:1059A000490A060045184E43000A090AD21848431E
:1059B000ED017F3A0104731A4019190C4318990F2D
:1059C00004D001215B0849075B1A521CD80904D393
:1059D000401CF50301D19D0607D0FF2A08D2D5054A
:1059E00006D0E4072043401970BD0125A843F4E721
:1059F000002A01DCE00770BD2402FF202043C0051F
:105A000070BD1B0EFF2A03D0FF2B01D0E00770BD35
:105A1000FF2645003606B54206D84D00B54203D8EC
:105A2000D218FF2A00D0E7E7004870BD0000C07F11
:105A300070B501250400ED074C4022D4441A02D26F
:105A40006C40001B0919C60D4B00F2B2FF2A4BD067
:105A50001B0E50D000020C02D31A2C43DC40A8438A
:105A6000051B05D5AD0019D36D08761E521E37D023
:105A7000F605280A01D2801970BD70416D0603D069
:105A800070BD6940FFF73CFF9C400902614049003E
:105A900001D0401E70BD0124A04370BD6D081DD013
:105AA00001202B0C01D12D0410302B0E01D12D0221
:105AB00008302B0F01D12D01001DAB0F01D1AD001E
:105AC000801CEB0F01D16D00401C6D00361A121ABC
:105AD000680AF5054019012A02DB70BD002070BD7F
